{
  "contractName": "Deed",
  "abi": [
    {
      "inputs": [
        {
          "internalType": "address",
          "name": "_lawyer",
          "type": "address"
        },
        {
          "internalType": "address payable",
          "name": "_beneficiary",
          "type": "address"
        },
        {
          "internalType": "uint256",
          "name": "fromNow",
          "type": "uint256"
        }
      ],
      "payable": true,
      "stateMutability": "payable",
      "type": "constructor"
    },
    {
      "constant": true,
      "inputs": [],
      "name": "INTERVAL",
      "outputs": [
        {
          "internalType": "uint256",
          "name": "",
          "type": "uint256"
        }
      ],
      "payable": false,
      "stateMutability": "view",
      "type": "function"
    },
    {
      "constant": true,
      "inputs": [],
      "name": "PAYOUTS",
      "outputs": [
        {
          "internalType": "uint256",
          "name": "",
          "type": "uint256"
        }
      ],
      "payable": false,
      "stateMutability": "view",
      "type": "function"
    },
    {
      "constant": true,
      "inputs": [],
      "name": "amount",
      "outputs": [
        {
          "internalType": "uint256",
          "name": "",
          "type": "uint256"
        }
      ],
      "payable": false,
      "stateMutability": "view",
      "type": "function"
    },
    {
      "constant": true,
      "inputs": [],
      "name": "beneficiary",
      "outputs": [
        {
          "internalType": "address payable",
          "name": "",
          "type": "address"
        }
      ],
      "payable": false,
      "stateMutability": "view",
      "type": "function"
    },
    {
      "constant": true,
      "inputs": [],
      "name": "earliest",
      "outputs": [
        {
          "internalType": "uint256",
          "name": "",
          "type": "uint256"
        }
      ],
      "payable": false,
      "stateMutability": "view",
      "type": "function"
    },
    {
      "constant": true,
      "inputs": [],
      "name": "lawyer",
      "outputs": [
        {
          "internalType": "address",
          "name": "",
          "type": "address"
        }
      ],
      "payable": false,
      "stateMutability": "view",
      "type": "function"
    },
    {
      "constant": true,
      "inputs": [],
      "name": "paidPayouts",
      "outputs": [
        {
          "internalType": "uint256",
          "name": "",
          "type": "uint256"
        }
      ],
      "payable": false,
      "stateMutability": "view",
      "type": "function"
    },
    {
      "constant": false,
      "inputs": [],
      "name": "withdraw",
      "outputs": [],
      "payable": false,
      "stateMutability": "nonpayable",
      "type": "function"
    }
  ],
  "bytecode": "0x60806040526040516105c13803806105c18339818101604052606081101561002657600080fd5b81019080805190602001909291908051906020019092919080519060200190929190505050826000806101000a81548173ffffffffffffffffffffffffffffffffffffffff021916908373ffffffffffffffffffffffffffffffffffffffff16021790555081600160006101000a81548173ffffffffffffffffffffffffffffffffffffffff021916908373ffffffffffffffffffffffffffffffffffffffff160217905550804201600281905550600a34816100df57fe5b046003819055505050506104c9806100f86000396000f3fe608060405234801561001057600080fd5b50600436106100885760003560e01c80634a8a7ce31161005b5780634a8a7ce3146101495780635dd65d3b1461016757806389facb2014610185578063aa8c217c146101a357610088565b80632be521461461008d57806338af3eed146100ab5780633bfb6e31146100f55780633ccfd60b1461013f575b600080fd5b6100956101c1565b6040518082815260200191505060405180910390f35b6100b36101c6565b604051808273ffffffffffffffffffffffffffffffffffffffff1673ffffffffffffffffffffffffffffffffffffffff16815260200191505060405180910390f35b6100fd6101ec565b604051808273ffffffffffffffffffffffffffffffffffffffff1673ffffffffffffffffffffffffffffffffffffffff16815260200191505060405180910390f35b610147610211565b005b61015161047d565b6040518082815260200191505060405180910390f35b61016f610483565b6040518082815260200191505060405180910390f35b61018d610489565b6040518082815260200191505060405180910390f35b6101ab61048e565b6040518082815260200191505060405180910390f35b600a81565b600160009054906101000a900473ffffffffffffffffffffffffffffffffffffffff1681565b6000809054906101000a900473ffffffffffffffffffffffffffffffffffffffff1681565b600160009054906101000a900473ffffffffffffffffffffffffffffffffffffffff1673ffffffffffffffffffffffffffffffffffffffff163373ffffffffffffffffffffffffffffffffffffffff16146102d4576040517f08c379a00000000000000000000000000000000000000000000000000000000081526004018080602001828103825260108152602001807f62656e6566696369617279206f6e6c790000000000000000000000000000000081525060200191505060405180910390fd5b60025442101561034c576040517f08c379a00000000000000000000000000000000000000000000000000000000081526004018080602001828103825260098152602001807f746f6f206561726c79000000000000000000000000000000000000000000000081525060200191505060405180910390fd5b600a600454106103c4576040517f08c379a000000000000000000000000000000000000000000000000000000000815260040180806020018281038252600f8152602001807f6e6f207061796f757473206c656674000000000000000000000000000000000081525060200191505060405180910390fd5b6000600a6002544203816103d457fe5b049050600060045482039050600a600454820111156103f357806103fa565b600454600a035b905080600460008282540192505081905550600160009054906101000a900473ffffffffffffffffffffffffffffffffffffffff1673ffffffffffffffffffffffffffffffffffffffff166108fc60035484029081150290604051600060405180830381858888f19350505050158015610478573d6000803e3d6000fd5b505050565b60045481565b60025481565b600a81565b6003548156fea265627a7a72315820a7fbd8c6fa2f98fd596a3117a6786c852c263f76a8cf6b6bcc233eceef36524564736f6c63430005100032",
  "source": "pragma solidity ^0.5.0;\r\n\r\ncontract Deed {\r\n    address public lawyer;\r\n    address payable public beneficiary;\r\n    uint public earliest;\r\n    uint public amount;\r\n    uint constant public PAYOUTS = 10; //this allows us to save gas by storing the variable in the code instead of the storage of the blockchain\r\n    uint constant public INTERVAL = 10;\r\n    uint public paidPayouts;\r\n\r\n    constructor(\r\n        address _lawyer,\r\n        address payable _beneficiary,\r\n        uint fromNow \r\n    \r\n    ) payable public {\r\n        \r\n        lawyer = _lawyer;\r\n        beneficiary = _beneficiary;\r\n        earliest = now + fromNow;\r\n        amount = msg.value/ PAYOUTS;\r\n    }\r\n    function withdraw() public {\r\n        require(msg.sender == beneficiary, 'beneficiary only');\r\n        require(now >= earliest, 'too early');\r\n        require(paidPayouts < PAYOUTS, 'no payouts left');//number of payouts done\r\n        \r\n        \r\n        uint eligiblePayouts = (now - earliest)/INTERVAL;\r\n        uint duePayouts = eligiblePayouts - paidPayouts;\r\n        duePayouts = duePayouts + paidPayouts <= PAYOUTS ? PAYOUTS - paidPayouts : duePayouts;\r\n        paidPayouts += duePayouts;\r\n        beneficiary.transfer(eligiblePayouts * amount);\r\n        \r\n\r\n    }\r\n}",
  "sourcePath": "C:/Users/USER/AppData/Roaming/npm/node_modules/truffle/dapp30/9_Multideed/contracts/Multideed.sol",
  "compiler": {
    "name": "solc",
    "version": "0.5.16+commit.9c3226ce.Emscripten.clang"
  },
  "schemaVersion": "3.3.4",
  "updatedAt": "2021-10-15T09:27:25.167Z",
  "devdoc": {
    "methods": {}
  },
  "userdoc": {
    "methods": {}
  }
}